S00A00004C432E737265638B
S11300000C949D000C94BA000C94BA000C94BA00A1
S11300100C94BA000C94BA000C94BA000C94BA0074
S11300200C94BA000C94BA000C94BA000C94BA0064
S11300300C94BA000C94BA000C94BA000C94BA0054
S11300400C94BA000C94BA000C94BA000C94BA0044
S11300500C94BA000C94BA000C94BA000C94BA0034
S11300600C94BA000C94BA000F016702770277026D
S113007077027702770277027702770277027702B4
S1130080770277023F025F02E701EF01F701FF0108
S113009007020F0217021F0227022F0247027702EC
S11300A0570237024F027702770217011F01270117
S11300B02F0137013F0147014F0157015F016701DC
S11300C06F0177017F0187018F0197019F01A701CC
S11300D0AF01B701BF01C701CF01D701DF0177022B
S11300E07702770277027702770277027702770244
S11300F07702770277027702770277027702770234
S11301007702770277027702770277027702770223
S11301107702770277027702770277027702770213
S11301206F02730578057D05820587058C059105A9
S113013096059B05A005A505AA0511241FBECFEFB2
S1130140D8E0DEBFCDBF12E0A0E0B1E0EAEEFAE114
S113015002C005900D92A832B107D9F722E0A8E2B7
S1130160B2E001C01D92AD32B207E1F70E94CF0B9D
S11301700C94730D0C940000429A85E08A95F1F773
S11301800000429885E08A95F1F700000895CF9326
S1130190DF93D82FC8E0DD2314F4409A01C04098BF
S11301A00E94BC00DD0FC150B1F7DF91CF910895DB
S11301B0EF92FF920F931F93CF93DF9300D000D061
S11301C01F92CDB7DEB789836A834B832C830D835B
S11301D08E010F5F1F4F7E0186E0E80EF11CF801CF
S11301E081918F010E94C7000E151F05C1F70F9062
S11301F00F900F900F900F90DF91CF911F910F915F
S1130200FF90EF9008950F9390E0FC01B097ED35C7
S1130210F10508F06CC1EC5CFF4F0C94520D00E04A
S113022020E040E060E080E00E94D80067C10EE773
S113023029E049E069E08EE70E94D8005FC106E743
S113024029E449E469E48FE70E94D80057C102E237
S113025021E441E461E48EE30E94D8004FC10EE73B
S113026021E441E461E48FE70E94D80047C101E43E
S113027029E449E469E48FE70E94D8003FC101E022
S113028029E049E069E08FE70E94D80037C109E31B
S113029029E449E461E48EE70E94D8002FC10FE706
S11302A028E048E068E08FE70E94D80027C100E01A
S11302B021E44FE761E480E00E94D8001FC10FE70A
S11302C020E440E460E280E00E94D80017C101E429
S11302D022E244E168E08FE70E94D8000FC100E405
S11302E020E440E460E48FE70E94D80007C10FE7F0
S11302F022E044E062E08FE70E94D800FFC00FE7ED
S113030020E148E064E08FE70E94D800F7C00EE3E4
S113031021E441E461E48EE30E94D800EFC007E0E9
S113032029E049E069E08FE70E94D800E7C00EE7C2
S113033021E641E561E48EE30E94D800DFC006E4D3
S113034029E249E169E08FE70E94D800D7C009E7B4
S113035029E449E469E48FE40E94D800CFC001E0B5
S113036021E04FE761E081E00E94D800C7C00FE3BD
S113037020E440E460E48FE30E94D800BFC00FE1B2
S113038020E240E460E28FE10E94D800B7C00FE3AE
S113039020E440E360E48FE30E94D800AFC003E6AA
S11303A024E148E064E183E60E94D800A7C007E0A6
S11303B028E048E768E087E00E94D8009FC003E493
S11303C025E449E461E581E60E94D80097C00EE384
S11303D021E441E461E48EE30E94D8008FC00FE77A
S11303E022E044E060E080E00E94D80087C006E498
S11303F029E441E561E686E40E94D8007FC006E373
S113040029E449E461E482E20E94D80077C000E173
S11304102FE742E164E188E10E94D8006FC009E35C
S113042025E445E465E487E20E94D80067C002E35E
S113043029E449E469E48EE30E94D8005FC003E044
S113044025E049E761E081E00E94D80057C006E357
S113045029E449E469E486E30E94D8004FC00EE32E
S113046029E449E469E486E00E94D80047C004E234
S113047024E244E264E284E20E94D8003FC000E047
S113048020E040E660E680E00E94D80037C000E04B
S113049020E046E666E680E00E94D8002FC008E02F
S11304A024E142E261E480E00E94D80027C000E039
S11304B021E442E264E188E00E94D8001FC002E027
S11304C024E048E060E180E20E94D80017C000E028
S11304D020E04FE560E080E00E94D8000FC000E01B
S11304E020E04FE760E080E00E94D80007C003E608
S11304F024E148E064E183E60E94D8000F91089566
S11305001F93CF93DF93EC0110E007C0FE01E80FC7
S1130510F91F80810E9403011F5F812F90E0FE017B
S113052001900020E9F73197EC1BFD0B8E179F0714
S113053068F3DF91CF911F9108950F931F93CF9389
S1130540DF93439A42982FEF80E792E02150804056
S11305509040E1F700C00000419840984398C0E4FF
S1130560D1E00E94BC002197E1F74298439A25E329
S11305702A95F1F70000419A439802E010E0409870
S11305800E94BC00409AC7E00E94BC00C150E1F741
S113059001501109A1F74298439A85E38A95F1F72E
S11305A00000419A439802E010E0409A0E94BC0087
S11305B04098C7E00E94BC00C150E1F70150110906
S11305C0A1F74298439ADF91CF911F910F9108951B
S11305D04198439808954298439A4098089587B162
S11305E08F6087B9089584B1816C84B92E9885E3AE
S11305F08A95F1F700002F9885E38A95F1F70000BA
S1130600289808952E9885E38A95F1F700002F988D
S113061085E38A95F1F700002F9A8AE08A95F1F72D
S113062000C00895209A98E0289880FD289A2E9872
S113063025E32A95F1F700002E9A25E32A95F1F790
S113064000008695915081F70895CF93DF93D82FBA
S1130650C62F0E9402038D2F0E9412038C2F0E942A
S1130660120385E38A95F1F700002F9885E38A95B4
S1130670F1F700002E98DF91CF910895209885E33B
S11306808A95F1F7000028E080E02E9A95E39A9588
S1130690F1F700002E9895E39A95F1F7000093B1D5
S11306A08695979599279795892B215071F70895E9
S11306B0CF93C82F0E9402038C2F0E9412030E9422
S11306C03E0395E39A95F1F700002F9895E39A95E8
S11306D0F1F700002E98CF910895CF93DF93EC01AA
S11306E02F3009F06DC0643181F481E80E94580311
S11306F0982F9077969596959695292F220F220FED
S1130700920F8F70890F88832BC1653181F483E840
S11307100E945803982F9077969596959695292F31
S1130720220F220F920F8F70890F898319C16631AE
S113073091F485E80E9458039CE09F83982F90735E
S1130740969596959695292F220F220F920F8F70CA
S1130750890F8A8305C1673181F487E80E945803B1
S1130760982F9073969596959695292F220F220F80
S1130770920F8F70890F8C83F3C0683179F489E804
S11307800E94580384FB992790F9990F292F220F6F
S1130790220F920F8F70890F8D83E2C0693109F0A7
S11307A0DFC08DE80E945803982F92959F70990F8F
S11307B0292F220F220F920F8F70890F8983D0C0A7
S11307C0203109F0CDC06431B9F48DEC489F812DFE
S11307D0112486958695869590E1899FB001112410
S11307E06077880F982F990F990F890F481B642BF6
S11307F080E80E942503B4C06531B9F48DEC489FAC
S1130800812D112486958695869590E1899FB00166
S113081011246077880F982F990F990F890F481B1F
S1130820642B82E80E9425039BC0663109F04FC007
S11308308F818A30C1F48DEC489F812D11248695D7
S11308408695869590E1899FB00111246071880F87
S1130850982F990F990F890F481B4068642B84E8DF
S11308600E9425037DC08B30C1F48DEC489F812DFF
S1130870112486958695869590E1899FB00111246F
S11308806071880F982F990F990F890F481B406A40
S1130890642B84E80E94250363C08C3009F060C097
S11308A08DEC489F812D112486958695869590E13F
S11308B0899FB00111246073880F982F990F990FA5
S11308C0890F481B642B84E80E94250349C06731C3
S11308D0B9F48DEC489F812D1124869586958695D3
S11308E090E1899FB00111246073880F982F990FAC
S11308F0990F890F481B642B86E80E94250330C09A
S11309006831B9F48DEC489F812D11248695869524
S1130910869590E1899FB00111246071880F982F0A
S1130920990F990F890F481B642B88E80E942503AF
S113093017C06931A9F48DEC489F812D1124869547
S11309408695869590E1899FB0011124880F982F90
S1130950990F990F890F481B642B8CE80E9425037B
S1130960DF91CF9108952FE040E00E946D03089538
S1130970CF93DF93EC0164E10E94B30465E1CE01FF
S11309800E94B30466E1CE010E94B30466E1CE0185
S11309900E94B30467E1CE010E94B30468E1CE0172
S11309A00E94B30469E1CE010E94B304DF91CF91A8
S11309B0089520E10E946D030895CF93C82F0E94EB
S11309C0E80284E991E00E9480020E94EB022FEF8A
S11309D089E698E1215080409040E1F700C0000092
S11309E00E94E802C43020F48DE991E00E94800264
S11309F08CEF8C0F883020F486EA91E00E9480020C
S1130A0084EF8C0F853020F48FEA91E00E948002FD
S1130A10C151C73020F488EB91E00E9480020E940B
S1130A20EB022FEF89E698E1215080409040E1F7F6
S1130A3000C00000CF9108958A3091053CF4EBE2A8
S1130A40F2E090E39083805D81830895EBE2F2E02D
S1130A502AE030E0B9010E943E0D805D8183CB0124
S1130A60B9010E943E0D805D80830895EF92FF924C
S1130A700F931F93CF93DF938C017B01CA010E94D4
S1130A801C05CBE2D2E088810E94030189810E9487
S1130A9003018AE30E940301C7010E941C058881A7
S1130AA00E94030189810E9403018AE30E940301D9
S1130AB0C8010E941C0588810E94030189810E944B
S1130AC00301DF91CF911F910F91FF90EF90089553
S1130AD090E0FC013197EC30F10508F03FC0EF568F
S1130AE0FF4F0C94520D81EC91E00E948002089516
S1130AF085EC91E00E948002089589EC91E00E94C7
S1130B00800208958DEC91E00E948002089581EDA9
S1130B1091E00E948002089585ED91E00E94800298
S1130B20089589ED91E00E94800208958DED91E091
S1130B300E948002089581EE91E00E94800208954F
S1130B4085EE91E00E948002089589EE91E00E9472
S1130B50800208958DEE91E00E94800208951F9313
S1130B60CF93DF93EC01162F8CE70E940301CE0193
S1130B700E941C05CBE2D2E088810E940301898196
S1130B800E9403018FE20E940301812F0E946805E5
S1130B908CE70E940301DF91CF911F910895519832
S1130BA05298539808958AB180668AB9219AE0E8E8
S1130BB0F0E0808181688083E1E8F0E080818960F1
S1130BC0808384B5836A84BD85B5816085BD0895BD
S1130BD0509A0E94EF020E949D020E94D3050E9437
S1130BE0CF050895E0E8F0E080818E778083E1E826
S1130BF0F0E08081867F808384B58C7584BD85B563
S1130C008E7F85BD08958F3F910509F03CF42FEF49
S1130C1030E0281B390B40E050E017C0811522E07A
S1130C2092075CF4AC015A952FEF31E0B901681BCF
S1130C30790BCB0120E030E008C09C0132504FEF2B
S1130C4052E0481B590B80E090E028BD5093890086
S1130C504093880087BD089589B18E708A3039F039
S1130C608C3019F0863039F404C081E0089583E0B3
S1130C70089582E0089580E008958636C9F128F445
S1130C80843661F08536F9F084C0883609F459C099
S1130C9008F443C0893609F468C07BC0653041F468
S1130CA06BE871E084E091E00E946C0D85E60895A4
S1130CB0663009F070C06EE571E084E091E00E9456
S1130CC06C0D89E60895653041F469E771E084E0CC
S1130CD091E00E946C0D86E60895663009F05DC0CF
S1130CE062E871E084E091E00E946C0D84E608956E
S1130CF0653041F467E671E084E091E00E946C0D98
S1130D0087E60895663009F04AC06BE871E084E034
S1130D1091E00E946C0D85E60895653041F460E72A
S1130D2071E084E091E00E946C0D88E608956630DD
S1130D30C1F569E771E084E091E00E946C0D86E6FC
S1130D400895653041F46EE571E084E091E00E941D
S1130D506C0D89E60895663031F567E671E084E04C
S1130D6091E00E946C0D87E60895653041F462E8D5
S1130D7071E084E091E00E946C0D84E60895663091
S1130D80A1F460E771E084E091E00E946C0D88E6D4
S1130D90089580E0089580E0089580E0089580E05B
S1130DA0089580E0089580E0089580E008958C35EA
S1130DB011F130F48A3509F447C08B3539F06CC031
S1130DC08D3571F18E3509F453C066C0653041F438
S1130DD061E371E084E091E00E946C0D8CE508957C
S1130DE0663009F05BC066E171E084E091E00E9446
S1130DF06C0D8EE50895653041F468E271E084E09D
S1130E0091E00E946C0D8DE50895663009F048C0AC
S1130E106AE371E084E091E00E946C0D8BE5089533
S1130E20653041F46FE171E084E091E00E946C0D63
S1130E308AE508956630B1F561E371E084E091E0FC
S1130E400E946C0D8CE50895653041F466E171E013
S1130E5084E091E00E946C0D8EE50895663021F5E2
S1130E6068E271E084E091E00E946C0D8DE50895E4
S1130E70653041F46AE371E084E091E00E946C0D16
S1130E808BE50895663091F46FE171E084E091E0C0
S1130E900E946C0D8AE5089580E0089580E008952D
S1130EA080E0089580E0089580E0089580E008954A
S1130EB08036C1F0813651F18F35E1F5653041F46A
S1130EC06CE471E084E091E00E946C0D80E608958A
S1130ED0663091F563E471E084E091E00E946C0D6A
S1130EE081E60895653041F463E471E084E091E0C3
S1130EF00E946C0D81E60895663001F565E571E0A8
S1130F0084E091E00E946C0D8FE50895653041F412
S1130F1065E571E084E091E00E946C0D8FE5089531
S1130F20663071F46CE471E084E091E00E946C0D31
S1130F3080E6089580E0089580E0089580E00895B3
S1130F4080E008950E94F2055D9A5E9829980895BC
S1130F500E94F2055D985E9A29980895CF93CCE398
S1130F600E942C06813029F40E942C068130E1F382
S1130F703BC00E94E80281EF91E00E9480020E943F
S1130F80EB020E94A20788EE93E0589AE3EFF1E0A7
S1130F903197F1F700C000005898E3EFF1E0319782
S1130FA0F1F700C00000019781F7FFE728E381E033
S1130FB0F15020408040E1F700C000000E94A807E3
S1130FC00E94E8028AEF91E00E9480020E94EB02F4
S1130FD09FEFE2E5F7E09150E040F040E1F700C018
S1130FE00000C15009F0BCCF0E94D305CF910895F1
S1130FF022E330E0823671F4589AE3EFF1E031975E
S1131000F1F700C000005898E3EFF1E03197F1F7F1
S113101000C000002150310969F70895CF9362E8B8
S113102071E084E091E00E946C0DC4E60E94E80245
S113103084E091E00E9480020E94EB020E942C0650
S1131040813049F4809103010E94F8070E942C0624
S11310508130E1F324C00E942C06823071F4809127
S113106003010E94F8070E942C068230E1F365E038
S11310708C2F0E943D06C82FD9CF0E942C068330A6
S1131080A9F6809103010E94F8070E942C06833080
S1131090E1F366E08C2F0E943D06C82FC7CF8C2F4A
S11310A0CF9108950F931F93CF93DF9365E571E07C
S11310B084E091E00E946C0D1FE5D0E001E00E9405
S11310C0E80284E091E00E9480020E94EB020E9408
S11310D02C06813051F4809103010E94F8070E948C
S11310E02C068130E1F3C02F01C0CD2F0E942C06C5
S11310F0823071F4809103010E94F8070E942C064B
S11311008230E1F365E0812F0E945807182F11C047
S11311100E942C06833069F4809103010E94F80731
S11311200E942C068330E1F366E0812F0E94580769
S1131130182FCC2321F2812FDF91CF911F910F9192
S11311400895EF92FF920F931F93CF93DF936AE377
S113115071E084E091E00E946C0DCBE5E12CF12C70
S113116010E001E00E94E80284E091E00E94800225
S11311700E94EB02CA3581F40E94D305C7010E9484
S113118003068FEFE81682E0F80611F4E12CF12C47
S11311908FEFE81AF80A1FC0CB3531F40E94F2052C
S11311A05D9A5E98299817C0CC3531F40E94F205F7
S11311B05D985E9A29980FC0CD3531F40E94F205EE
S11311C05D985E98299A07C0CE3529F40E94F205ED
S11311D05D985E9829980E942C06813051F4809184
S11311E003010E94F8070E942C068130E1F3D02FFE
S11311F001C0D12F0E942C06823071F4809103012A
S11312000E94F8070E942C068230E1F365E08C2FDF
S11312100E94D706C82F11C00E942C06833069F49F
S1131220809103010E94F8070E942C068330E1F3A9
S113123066E08C2F0E94D706C82FDD2309F492CFD5
S11312408C2FDF91CF911F910F91FF90EF90089514
S1131250FF920F931F93CF93DF9310922802803253
S113126009F4B5C030F48E3169F08F3109F45CC0F3
S11312700AC2823209F459C108F4FCC0833209F469
S1131280AFC101C2C0E00BE212E0D1E00E94E8026B
S113129083E092E00E9480028C2F90E00E941C0563
S11312A0F80180810E940301F80181810E940301F9
S11312B08EE30E9403010E94EB020E942C068130FF
S11312C051F4809103010E94F8070E942C0681309A
S11312D0E1F3D09328020E942C06823061F48091BD
S11312E003010E94F8070E942C068230E1F3CC33FC
S11312F090F4CF5F13C00E942C06833079F4809160
S113130003010E94F8070E942C068330E1F3CC23EA
S113131021F0C15003C0C0E001C0CBE3809128029A
S1131320882309F4B3CFB0C1C0E00BE212E00E94FD
S1131330E80289E092E00E9480028C2F90E00E94F3
S11313401C05F80180810E940301F80181810E943B
S113135003018EE30E9403010E94EB020E942C060B
S1131360813061F4809103010E94F8070E942C06E9
S11313708130E1F381E08093280286C10E942C062B
S1131380823061F4809103010E94F8070E942C06C8
S11313908230E1F3CC3390F4CF5F13C00E942C066B
S11313A0833079F4809103010E94F8070E942C068F
S11313B08330E1F3CC2321F0C15003C0C0E001C06D
S11313C0CBE380912802882309F4B1CF5DC1C0E04A
S11313D00BE212E00E94E8028FE092E00E94800299
S11313E08C2F90E00E941C05F80180810E9403016B
S11313F0F80181810E9403018EE30E9403010E948F
S1131400EB020E942C06813061F4809103010E945A
S1131410F8070E942C068130E1F381E080932802D2
S113142033C10E942C06823061F4809103010E9432
S1131430F8070E942C068230E1F3C83190F4CF5FA4
S113144013C00E942C06833079F4809103010E941A
S1131450F8070E942C068330E1F3CC2321F0C1501D
S113146003C0C0E001C0C7E180912802882309F4C9
S1131470B1CF0AC1C0E00BE212E00F2EF1E3FF2E60
S1131480F02DD0E3F801F082D1830E94E80285E1D7
S113149092E00E9480028C2F90E00E941C05F801CB
S11314A080810E940301F80181810E9403018EE37F
S11314B00E9403010E94EB020E942C06813061F419
S11314C0809103010E94F8070E942C068130E1F309
S11314D081E080932802D8C00E942C06823061F4F7
S11314E0809103010E94F8070E942C068230E1F3E8
S11314F0C03290F4CF5F13C00E942C06833079F47D
S1131500809103010E94F8070E942C068330E1F3C6
S1131510C23020F0C15003C0C1E001C0CFE18091CE
S11315202802882309F4AECFAFC0C0E00BE212E07A
S11315300F2EF1E3FF2EF02DD0E3F801F082D183DA
S11315400E94E8028BE192E00E9480028C2F90E0DE
S11315500E941C05F80180810E940301F801818129
S11315600E9403018EE30E9403010E94EB020E9489
S11315702C06813061F4809103010E94F8070E94D7
S11315802C068130E1F381E0809328027DC00E9423
S11315902C06823061F4809103010E94F8070E94B6
S11315A02C068230E1F3CD3090F4CF5F13C00E945B
S11315B02C06833079F4809103010E94F8070E947D
S11315C02C068330E1F3C23020F0C15003C0C1E0E7
S11315D001C0CCE080912802882309F4AECF54C026
S11315E0C0E00BE212E00E94E80281E292E00E9475
S11315F080028C2F90E00E941C05F80180810E94DB
S11316000301F80181810E9403018EE30E9403011A
S11316100E94EB020E942C06813061F48091030148
S11316200E94F8070E942C068130E1F381E0809348
S113163028022AC00E942C06823061F480910301A2
S11316400E94F8070E942C068230E1F3C43690F41D
S1131650CF5F13C00E942C06833079F4809103017C
S11316600E94F8070E942C068330E1F3CC2321F07A
S1131670C15003C0C0E001C0C3E6809128028823A2
S113168009F4B1CF01C0C0E08C2FDF91CF911F913D
S11316900F91FF900895823619F08336A9F028C07F
S11316A0653041F466E171E084E091E00E946C0DE4
S11316B083E608956630F1F466E171E084E091E038
S11316C00E946C0D83E60895653041F46DE071E08D
S11316D084E091E00E946C0D82E60895663061F426
S11316E06DE071E084E091E00E946C0D82E6089563
S11316F080E0089580E0089580E008950F931F939B
S1131700CF93DF936DE071E084E091E00E946C0D73
S1131710D2E610E001E00E94E80284E091E00E9439
S113172080020E94EB020E942C06813051F48091C9
S113173003010E94F8070E942C068130E1F3C02FB8
S113174001C0C12F0E942C06823071F480910301E4
S11317500E94F8070E942C068230E1F365E08D2F89
S11317600E944B0BD82F11C00E942C06833069F4C1
S1131770809103010E94F8070E942C068330E1F354
S113178066E08D2F0E944B0BD82FCC2321F2D093EF
S113179003018D2FDF91CF911F910F910895CF9366
S11317A0DF93CDB7DEB728970FB6F894DEBF0FBE30
S11317B0CDBF0E94E8050E94F302CE0101960E946B
S11317C0B80466E1CE0101960E94B3048B810E94A5
S11317D0DD040FE51AE5812C912C5401E12CF12C48
S11317E00E942C06813009F080C0809103010E9480
S11317F0F8070E942C068130E1F30E940E08863619
S113180009F45FC030F4843659F0853609F451C0C8
S11318106CC0873609F451C0883609F462C065C0CB
S11318208EE10E942809482F64E1CE0101960E94AE
S1131830D9048FE10E942809482F65E1CE01019661
S11318400E94D90480E20E942809482F66E1CE0153
S113185001960E94D9042FE788E391E0215080404B
S11318609040E1F700C0000081E20E942809482F5F
S113187067E1CE0101960E94D9042FE788E391E045
S1131880215080409040E1F700C0000082E20E94B5
S11318902809482F68E1CE0101960E94D9042FE758
S11318A088E391E0215080409040E1F700C00000BF
S11318B01CC00E94A108182F18C00E945208082FAB
S11318C014C08EE10E942809809302018FE10E94D6
S11318D028098093010180E20E9428098093000175
S11318E004C00E947E0B809303011C3589F028F408
S11318F01A35D1F01B3531F02AC01D3579F01E356B
S113190009F125C00E94F2055D9A5E9829981FC0CE
S11319100E94F2055D985E9A299819C00E94F2050A
S11319205D985E98299A13C0C7010E9403062FEFA1
S1131930E21622E0F20611F4E12CF12C8FEFE81A02
S1131940F80A05C00E94F2055D985E982998003651
S113195009F10136A1F10F3509F07EC064E1CE0131
S113196001960E94B30465E1CE0101960E94B3047E
S113197066E1CE0101960E94B3040E94E8024B8105
S113198050E06A8170E0898190E00E9436050E94EF
S1131990EB0262C067E1CE0101960E94B30468E1E4
S11319A0CE0101960E94B3040E94E8026E8170E0A9
S11319B08D8190E00E94AF050E94EB024DC00E9411
S11319C0E80290E9891691E09906A104B10418F59A
S11319D064E1CE0101960E94B30465E1CE01019653
S11319E00E94B30466E1CE0101960E94B3044B81C8
S11319F050E06A8170E0898190E00E9436052FEF03
S1131A00821A920AA20AB20A80E9881681E098062C
S1131A10A104B104F8F067E1CE0101960E94B30479
S1131A2068E1CE0101960E94B3049FEF891A990AD6
S1131A30A90AB90A6E8170E08D8190E00E94AF0519
S1131A4020E2821623E09206A104B10419F4812C49
S1131A50912C54010E94EB029B8180910001981308
S1131A60BFCE9A81809101019813BACE9981809159
S1131A7002019813B5CE0E94AE07B2CE97FB072E93
S1131A8016F4009407D077FD09D00E94580D07FC86
S1131A9005D03EF4909581959F4F0895709561957A
S1131AA07F4F0895EE0FFF1F0590F491E02D0994E8
S1131AB0AA1BBB1B51E107C0AA1FBB1FA617B70770
S1131AC010F0A61BB70B881F991F5A95A9F780958C
S1131AD09095BC01CD010895FB01DC0101900D92AC
S10D1AE00020E1F70895F894FFCF09
S1131AEA646464623C41444A5553543E003C202099
S1131AFA4F4E20203E003C204F464620203E003CCC
S1131B0A2050574D20203E003C20424C5545203E53
S1131B1A003C475245454E203E003C205245442055
S1131B2A203E003C20424F5448203E003C20444181
S1131B3A5445203E003C2054494D45203E003C205B
S1131B4A45584954203E003C53484F572E2E3E00D8
S1131B5A3C42555A5A45523E003C414C41524D2052
S1131B6A3E003C41444A5553543E003C434F4C4F7B
S1131B7A52533E002020474F4F44202000204E4914
S1131B8A4748542120004D4F524E494E47210020C8
S1131B9A20444159212020004556454E494E4721AB
S1131BAA004A414E00464542004D415200415052BE
S1131BBA004D4159004A554E004A554C004155477B
S1131BCA00534550004F4354004E4F56004445437A
S1131BDA0057414B45205550200020204E4F572195
S1131BEA2020003C5345433A003C4D494E3A003CC0
S1131BFA48523A20003C4441593A003C4D54483A30
S10B1C0A003C593A323000009D
S9030000FC
